:020000040000FA
:20000000930000001301000093010000130200009302000013030000930300001304000038
:200020009304000013050000930500001306000093060000130700009307000013080000F8
:20004000930800001309000093090000130A0000930A0000130B0000930B0000130C0000B8
:20006000930C0000130D0000930D0000130E0000930E0000130F0000930F00001701018002
:20008000130101F8170D0080130DCDF7970D0080938D4DF76358BD0123200D00130D4D000D
:2000A000E3DCADFF1305000093050000EF0040046F0000006700050093070000370602003E
:2000C00093050001832606001305F5FF93974700138706FD63F4E500138796FC1377F700D5
:2000E000B367F700E31005FE1385070067800000130101FD23229102232C4101232A510159
:20010000232861012326710123248101232611022324810223202103232E310123229101C7
:200120002320A101B70702001307200423A0E7001307F00423A0E70023A0E7001307400571
:2001400023A0E700B7040200930A3005130B9000130A1000B70B0180130C000383A70400F8
:200160006396570383A90400938709FD6360FB02B317FA0013F737226310070613F78708DC
:200180006316071093F747106390070EB70702001307100223A0E700EFF09FF18320C1027B
:2001A0000324810283244102032901028329C101032A8101832A4101032B0101832BC100D1
:2001C000032C8100832C4100032D010013050000130101036780000013052000EFF0DFED54
:2001E000130405001309E5FF13054000EFF0DFEC33048500935C8500B38C8C00635C050A18
:20020000B3072501E3E4FBF813040500138DF9FC1305200063642A0BEFF01FEA3384AC0014
:200220001374F40F9307F00FE312F4F603A704009307D000E31CF7F483A704009306A00053
:20024000E396D7F49306E00223A0D40093066003E3F636F123A0E40023A0F4003705008032
:20026000EFF05FE56FF09FF213052000EFF0DFE4930C05001309D5FF13056000EFF0DFE3E4
:2002800013540501330494016FF09FF613052000EFF09FE2930C05001309C5FF130580007D
:2002A000EFF09FE113548501935705013304F4006FF05FFDE30A05F46FF05FEDEFF0DFDFEE
:2002C00093072000B38CAC001309F9FF63E8A7012300A400130414006FF09FF3E39A89F396
:2002E0001375F50F23A0A4006FF09FF200000000000000000000000000000000000000001B
:200300000000000000000000000000000000000000000000000000000000000000000000DD
:200320000000000000000000000000000000000000000000000000000000000000000000BD
:2003400000000000000000000000000000000000000000000000000000000000000000009D
:2003600000000000000000000000000000000000000000000000000000000000000000007D
:2003800000000000000000000000000000000000000000000000000000000000000000005D
:2003A00000000000000000000000000000000000000000000000000000000000000000003D
:2003C00000000000000000000000000000000000000000000000000000000000000000001D
:2003E0000000000000000000000000000000000000000000000000000000000000000000FD
:00000001FF
