S02B00002F63796764726976652F642F66726564657269632F4152475F50726F6A656374732F636F7265735FE6
S315800000006F00C004732F2034930F8000630AFF03B0
S31580000010930F90006306FF03930FB0006302FF0304
S31580000020170F0080130F0FFE63040F0067000F0089
S31580000030732F203463540F006F00400093E1915377
S31580000040171F000023203FFC6FF09FFF732540F1B0
S31580000050631005009702000093820201739052306C
S3158000006073500018970200009382C2017390523039
S315800000709302F0FF7390023B9302F0017390023A71
S315800000809702000093828201739052307350203021
S315800000907350303073504030930100009702000057
S315800000A0938282F673905230130510001315F50172
S315800000B0634805000F00F00F9301100073000000E5
S315800000C097020080938202F4638E0200739052102E
S315800000D0B7B200009382921073902230732320303F
S315800000E0E39E62F4735000303725000013050580C7
S315800000F07320053097020000938242017390123478
S31580000100732540F17300203097200000938080EFA4
S3158000011017210000130101F283A1000013020000E1
S31580000120930210001303F0FFB70300809383F3FF5D
S315800001303704008033824100B382510033836100EB
S31580000140B383710033848100232031002322410050
S31580000150232451002326610023287100232A81004D
S3158000016097200000938040EA17210000130101EEDA
S3158000017003A4000093040000130510009305F0FF0C
S31580000180370600801306F6FFB7060080B304940096
S315800001903305A400B305B4003306C400B306D40007
S315800001A023208100232291002324A1002326B1004D
S315800001B02328C100232AD10097200000938000E5E0
S315800001C017210000130101EA83A60000130700002F
S315800001D0930710001308F0FFB70800809388F8FF94
S315800001E0370900803387E600B387F6003388060137
S315800001F0B3881601338926012320D1002322E1000A
S315800002002324F1002326010123281101232A210119
S31580000210972000009380C0DF17210000130101E6BC
S3158000022003A9000093090000130A1000930AF0FF47
S31580000230370B0080130BFBFFB70B0080B309390126
S31580000240330A4901B30A5901330B6901B30B7901AA
S315800002502320210123223101232441012326510118
S3158000026023286101232A710197200000938080DA78
S3158000027017210000130101E283AB0000130C00007C
S31580000280930C1000130DF0FFB70D0080938DFDFFCA
S31580000290370E0080338C8B01B38C9B01338DAB0181
S315800002A0B38DBB01338ECB012320710123228101C3
S315800002B0232491012326A1012328B101232AC101E8
S315800002C0972C0000938C4CD5172D0000130D0DDE56
S315800002D003AE0C00930D1000B30EBE01338FBE012A
S315800002E0B30FBF01B380BF013381B001B301B10148
S315800002F02320BD012322CD012324DD012326ED0108
S315800003002328FD01232A1D00232C2D00232E3D00AA
S3158000031097200000938080D017210000130101DB15
S3158000032003AE0000B79DFFF7938D8D813300BE012C
S315800003302320010097200000938080CE17210000A3
S31580000340130101D903AE0000B79DFFF7938D8D8110
S315800003503300BE01B3020000232001002322510096
S3158000036097200000938000CC172100001301C1D68E
S3158000037083A1000033820100B302020033035000E0
S3158000038033070300B307070033880700B30C000167
S31580000390330D9001B30D0D00232041002322A101CE
S315800003A02324B1010F00F00F9301100073000000A9
S315800003B0731000C000000000000000000000000074
S309800003C000000000B3
S315800020000000000001000000FFFFFFFFFFFFFF7FD1
S3158000201000000080CDAB00007856341298BADCFE02
S3158000202014589236000000000000000000000000F6
S31580002030FFFFFFFFFFFFFFFFFFFFFFFFFFFFFFFF2A
S31580002040FFFFFFFFFFFFFFFFFFFFFFFFFFFFFFFF1A
S31580002050FFFFFFFFFFFFFFFFFFFFFFFFFFFFFFFF0A
S31580002060FFFFFFFFFFFFFFFFFFFFFFFFFFFFFFFFFA
S31580002070FFFFFFFFFFFFFFFFFFFFFFFFFFFFFFFFEA
S31580002080FFFFFFFFFFFFFFFFFFFFFFFFFFFFFFFFDA
S31580002090FFFFFFFFFFFFFFFFFFFFFFFFFFFFFFFFCA
S315800020A0FFFFFFFFFFFFFFFFFFFFFFFFFFFFFFFFBA
S315800020B0FFFFFFFFFFFFFFFFFFFFFFFFFFFFFFFFAA
S315800020C0FFFFFFFFFFFFFFFFFFFFFFFFFFFFFFFF9A
S315800020D0FFFFFFFFFFFFFFFFFFFFFFFFFFFFFFFF8A
S705800000007A
